{
  "_format": "hh-sol-artifact-1",
  "contractName": "Aggregator",
  "sourceName": "contracts/Aggregator.sol",
  "abi": [
    {
      "inputs": [],
      "stateMutability": "nonpayable",
      "type": "constructor"
    },
    {
      "anonymous": false,
      "inputs": [
        {
          "indexed": false,
          "internalType": "address",
          "name": "owner",
          "type": "address"
        },
        {
          "indexed": false,
          "internalType": "uint256",
          "name": "amount",
          "type": "uint256"
        },
        {
          "indexed": false,
          "internalType": "address",
          "name": "depositTo",
          "type": "address"
        }
      ],
      "name": "Deposit",
      "type": "event"
    },
    {
      "anonymous": false,
      "inputs": [
        {
          "indexed": false,
          "internalType": "address",
          "name": "owner",
          "type": "address"
        },
        {
          "indexed": false,
          "internalType": "uint256",
          "name": "amount",
          "type": "uint256"
        },
        {
          "indexed": false,
          "internalType": "address",
          "name": "depositTo",
          "type": "address"
        }
      ],
      "name": "Rebalance",
      "type": "event"
    },
    {
      "anonymous": false,
      "inputs": [
        {
          "indexed": false,
          "internalType": "address",
          "name": "owner",
          "type": "address"
        },
        {
          "indexed": false,
          "internalType": "uint256",
          "name": "amount",
          "type": "uint256"
        },
        {
          "indexed": false,
          "internalType": "address",
          "name": "withdrawFrom",
          "type": "address"
        }
      ],
      "name": "Withdraw",
      "type": "event"
    },
    {
      "inputs": [],
      "name": "amountDeposited",
      "outputs": [
        {
          "internalType": "uint256",
          "name": "",
          "type": "uint256"
        }
      ],
      "stateMutability": "view",
      "type": "function"
    },
    {
      "inputs": [],
      "name": "balanceOfContract",
      "outputs": [
        {
          "internalType": "uint256",
          "name": "",
          "type": "uint256"
        }
      ],
      "stateMutability": "view",
      "type": "function"
    },
    {
      "inputs": [],
      "name": "balanceWhere",
      "outputs": [
        {
          "internalType": "address",
          "name": "",
          "type": "address"
        }
      ],
      "stateMutability": "view",
      "type": "function"
    },
    {
      "inputs": [
        {
          "internalType": "uint256",
          "name": "_amount",
          "type": "uint256"
        },
        {
          "internalType": "uint256",
          "name": "_compAPY",
          "type": "uint256"
        },
        {
          "internalType": "uint256",
          "name": "_aaveAPY",
          "type": "uint256"
        }
      ],
      "name": "deposit",
      "outputs": [],
      "stateMutability": "nonpayable",
      "type": "function"
    },
    {
      "inputs": [],
      "name": "getCompoundAPY",
      "outputs": [
        {
          "internalType": "uint256",
          "name": "",
          "type": "uint256"
        }
      ],
      "stateMutability": "view",
      "type": "function"
    },
    {
      "inputs": [],
      "name": "locationOfFunds",
      "outputs": [
        {
          "internalType": "address",
          "name": "",
          "type": "address"
        }
      ],
      "stateMutability": "view",
      "type": "function"
    },
    {
      "inputs": [],
      "name": "name",
      "outputs": [
        {
          "internalType": "string",
          "name": "",
          "type": "string"
        }
      ],
      "stateMutability": "view",
      "type": "function"
    },
    {
      "inputs": [],
      "name": "owner",
      "outputs": [
        {
          "internalType": "address",
          "name": "",
          "type": "address"
        }
      ],
      "stateMutability": "view",
      "type": "function"
    },
    {
      "inputs": [
        {
          "internalType": "uint256",
          "name": "_compAPY",
          "type": "uint256"
        },
        {
          "internalType": "uint256",
          "name": "_aaveAPY",
          "type": "uint256"
        }
      ],
      "name": "rebalance",
      "outputs": [],
      "stateMutability": "nonpayable",
      "type": "function"
    },
    {
      "inputs": [],
      "name": "withdraw",
      "outputs": [],
      "stateMutability": "nonpayable",
      "type": "function"
    }
  ],
  "bytecode": "0x60806040526040518060400160405280601081526020017f5969656c642041676772656761746f72000000000000000000000000000000008152506000908051906020019062000051929190620001fb565b5073c02aaa39b223fe8d0a0e5c4f27ead9083c756cc2600460006101000a81548173ffffffffffffffffffffffffffffffffffffffff021916908373ffffffffffffffffffffffffffffffffffffffff16021790555073a17581a9e3356d9a858b789d68b4d866e593ae94600560006101000a81548173ffffffffffffffffffffffffffffffffffffffff021916908373ffffffffffffffffffffffffffffffffffffffff16021790555073030ba81f1c18d280636f32af80b9aad02cf0854e600660006101000a81548173ffffffffffffffffffffffffffffffffffffffff021916908373ffffffffffffffffffffffffffffffffffffffff160217905550737d2768de32b0b80b7a3454c06bdac94a69ddc7a9600760006101000a81548173ffffffffffffffffffffffffffffffffffffffff021916908373ffffffffffffffffffffffffffffffffffffffff160217905550348015620001b357600080fd5b5033600160006101000a81548173ffffffffffffffffffffffffffffffffffffffff021916908373ffffffffffffffffffffffffffffffffffffffff16021790555062000310565b8280546200020990620002ab565b90600052602060002090601f0160209004810192826200022d576000855562000279565b82601f106200024857805160ff191683800117855562000279565b8280016001018555821562000279579182015b82811115620002785782518255916020019190600101906200025b565b5b5090506200028891906200028c565b5090565b5b80821115620002a75760008160009055506001016200028d565b5090565b60006002820490506001821680620002c457607f821691505b60208210811415620002db57620002da620002e1565b5b50919050565b7f4e487b7100000000000000000000000000000000000000000000000000000000600052602260045260246000fd5b6122c780620003206000396000f3fe608060405234801561001057600080fd5b506004361061009d5760003560e01c80638f527d7c116100665780638f527d7c14610122578063b035acb214610140578063df8879b81461015e578063e6c7c4561461017a578063f86ccd41146101985761009d565b8062aeef8a146100a257806306fdde03146100be57806338d4dff8146100dc5780633ccfd60b146100fa5780638da5cb5b14610104575b600080fd5b6100bc60048036038101906100b7919061187c565b6101b6565b005b6100c66104f6565b6040516100d39190611b40565b60405180910390f35b6100e4610584565b6040516100f19190611c62565b60405180910390f35b610102610682565b005b61010c6109f0565b6040516101199190611a49565b60405180910390f35b61012a610a16565b6040516101379190611a49565b60405180910390f35b610148610a40565b6040516101559190611a49565b60405180910390f35b61017860048036038101906101739190611840565b610a66565b005b610182610f53565b60405161018f9190611c62565b60405180910390f35b6101a0611130565b6040516101ad9190611c62565b60405180910390f35b600160009054906101000a900473ffffffffffffffffffffffffffffffffffffffff1673ffffffffffffffffffffffffffffffffffffffff163373ffffffffffffffffffffffffffffffffffffffff1614610246576040517f08c379a000000000000000000000000000000000000000000000000000000000815260040161023d90611b62565b60405180910390fd5b60008311610289576040517f08c379a000000000000000000000000000000000000000000000000000000000815260040161028090611bc2565b60405180910390fd5b6000600354111561029f5761029e8282610a66565b5b600460009054906101000a900473ffffffffffffffffffffffffffffffffffffffff1673ffffffffffffffffffffffffffffffffffffffff166323b872dd3330866040518463ffffffff1660e01b81526004016102fe93929190611a64565b602060405180830381600087803b15801561031857600080fd5b505af115801561032c573d6000803e3d6000fd5b505050506040513d601f19601f8201168201806040525081019061035091906117ee565b506103668360035461113690919063ffffffff16565b6003819055508082111561042757600061037f8461114c565b146103bf576040517f08c379a00000000000000000000000000000000000000000000000000000000081526004016103b690611b82565b60405180910390fd5b600560009054906101000a900473ffffffffffffffffffffffffffffffffffffffff16600260006101000a81548173ffffffffffffffffffffffffffffffffffffffff021916908373ffffffffffffffffffffffffffffffffffffffff160217905550610494565b61043083611318565b600760009054906101000a900473ffffffffffffffffffffffffffffffffffffffff16600260006101000a81548173ffffffffffffffffffffffffffffffffffffffff021916908373ffffffffffffffffffffffffffffffffffffffff1602179055505b7fe31c7b8d08ee7db0afa68782e1028ef92305caeea8626633ad44d413e30f6b2f3384600260009054906101000a900473ffffffffffffffffffffffffffffffffffffffff166040516104e993929190611ac4565b60405180910390a1505050565b6000805461050390611f89565b80601f016020809104026020016040519081016040528092919081815260200182805461052f90611f89565b801561057c5780601f106105515761010080835404028352916020019161057c565b820191906000526020600020905b81548152906001019060200180831161055f57829003601f168201915b505050505081565b600080600560009054906101000a900473ffffffffffffffffffffffffffffffffffffffff1673ffffffffffffffffffffffffffffffffffffffff1663ae9d70b06040518163ffffffff1660e01b815260040160206040518083038186803b1580156105ef57600080fd5b505afa158015610603573d6000803e3d6000fd5b505050506040513d601f19601f820116820180604052508101906106279190611817565b905060006116809050600061016d90506000670de0b6b3a764000082670de0b6b3a764000085876106589190611e60565b6106629190611c99565b61066c9190611d42565b6106769190611eba565b90508094505050505090565b600160009054906101000a900473ffffffffffffffffffffffffffffffffffffffff1673ffffffffffffffffffffffffffffffffffffffff163373ffffffffffffffffffffffffffffffffffffffff1614610712576040517f08c379a000000000000000000000000000000000000000000000000000000000815260040161070990611b62565b60405180910390fd5b600060035411610757576040517f08c379a000000000000000000000000000000000000000000000000000000000815260040161074e90611be2565b60405180910390fd5b600560009054906101000a900473ffffffffffffffffffffffffffffffffffffffff1673ffffffffffffffffffffffffffffffffffffffff16600260009054906101000a900473ffffffffffffffffffffffffffffffffffffffff1673ffffffffffffffffffffffffffffffffffffffff16141561081e5760006107d96114e1565b14610819576040517f08c379a000000000000000000000000000000000000000000000000000000000815260040161081090611c02565b60405180910390fd5b610827565b61082661164a565b5b6000600460009054906101000a900473ffffffffffffffffffffffffffffffffffffffff1673ffffffffffffffffffffffffffffffffffffffff166370a08231306040518263ffffffff1660e01b81526004016108849190611a49565b60206040518083038186803b15801561089c57600080fd5b505afa1580156108b0573d6000803e3d6000fd5b505050506040513d601f19601f820116820180604052508101906108d49190611817565b9050600460009054906101000a900473ffffffffffffffffffffffffffffffffffffffff1673ffffffffffffffffffffffffffffffffffffffff1663a9059cbb33836040518363ffffffff1660e01b8152600401610933929190611a9b565b602060405180830381600087803b15801561094d57600080fd5b505af1158015610961573d6000803e3d6000fd5b505050506040513d601f19601f8201168201806040525081019061098591906117ee565b507f56c54ba9bd38d8fd62012e42c7ee564519b09763c426d331b3661b537ead19b233600354600260009054906101000a900473ffffffffffffffffffffffffffffffffffffffff166040516109dd93929190611ac4565b60405180910390a1600060038190555050565b600160009054906101000a900473ffffffffffffffffffffffffffffffffffffffff1681565b6000600260009054906101000a900473ffffffffffffffffffffffffffffffffffffffff16905090565b600260009054906101000a900473ffffffffffffffffffffffffffffffffffffffff1681565b600160009054906101000a900473ffffffffffffffffffffffffffffffffffffffff1673ffffffffffffffffffffffffffffffffffffffff163373ffffffffffffffffffffffffffffffffffffffff1614610af6576040517f08c379a0000000000000000000000000000000000000000000000000000000008152600401610aed90611b62565b60405180910390fd5b600060035411610b3b576040517f08c379a0000000000000000000000000000000000000000000000000000000008152600401610b3290611ba2565b60405180910390fd5b60008183118015610bbc5750600560009054906101000a900473ffffffffffffffffffffffffffffffffffffffff1673ffffffffffffffffffffffffffffffffffffffff16600260009054906101000a900473ffffffffffffffffffffffffffffffffffffffff1673ffffffffffffffffffffffffffffffffffffffff1614155b15610d4757610bc961164a565b600460009054906101000a900473ffffffffffffffffffffffffffffffffffffffff1673ffffffffffffffffffffffffffffffffffffffff166370a08231306040518263ffffffff1660e01b8152600401610c249190611a49565b60206040518083038186803b158015610c3c57600080fd5b505afa158015610c50573d6000803e3d6000fd5b505050506040513d601f19601f82011682018060405250810190610c749190611817565b9050610c7f8161114c565b50600560009054906101000a900473ffffffffffffffffffffffffffffffffffffffff16600260006101000a81548173ffffffffffffffffffffffffffffffffffffffff021916908373ffffffffffffffffffffffffffffffffffffffff1602179055507fbe7cdf13e1084b20fe6aadbf0625144b7a36881e5578f3222aab900d72d904c133600354600260009054906101000a900473ffffffffffffffffffffffffffffffffffffffff16604051610d3a93929190611ac4565b60405180910390a1610f4e565b8282118015610dc65750600760009054906101000a900473ffffffffffffffffffffffffffffffffffffffff1673ffffffffffffffffffffffffffffffffffffffff16600260009054906101000a900473ffffffffffffffffffffffffffffffffffffffff1673ffffffffffffffffffffffffffffffffffffffff1614155b15610f4d57610dd36114e1565b50600460009054906101000a900473ffffffffffffffffffffffffffffffffffffffff1673ffffffffffffffffffffffffffffffffffffffff166370a08231306040518263ffffffff1660e01b8152600401610e2f9190611a49565b60206040518083038186803b158015610e4757600080fd5b505afa158015610e5b573d6000803e3d6000fd5b505050506040513d601f19601f82011682018060405250810190610e7f9190611817565b9050610e8a81611318565b600760009054906101000a900473ffffffffffffffffffffffffffffffffffffffff16600260006101000a81548173ffffffffffffffffffffffffffffffffffffffff021916908373ffffffffffffffffffffffffffffffffffffffff1602179055507fbe7cdf13e1084b20fe6aadbf0625144b7a36881e5578f3222aab900d72d904c133600354600260009054906101000a900473ffffffffffffffffffffffffffffffffffffffff16604051610f4493929190611ac4565b60405180910390a15b5b505050565b6000600560009054906101000a900473ffffffffffffffffffffffffffffffffffffffff1673ffffffffffffffffffffffffffffffffffffffff16600260009054906101000a900473ffffffffffffffffffffffffffffffffffffffff1673ffffffffffffffffffffffffffffffffffffffff16141561107f57600560009054906101000a900473ffffffffffffffffffffffffffffffffffffffff1673ffffffffffffffffffffffffffffffffffffffff166370a08231306040518263ffffffff1660e01b81526004016110289190611a49565b60206040518083038186803b15801561104057600080fd5b505afa158015611054573d6000803e3d6000fd5b505050506040513d601f19601f820116820180604052508101906110789190611817565b905061112d565b600660009054906101000a900473ffffffffffffffffffffffffffffffffffffffff1673ffffffffffffffffffffffffffffffffffffffff166370a08231306040518263ffffffff1660e01b81526004016110da9190611a49565b60206040518083038186803b1580156110f257600080fd5b505afa158015611106573d6000803e3d6000fd5b505050506040513d601f19601f8201168201806040525081019061112a9190611817565b90505b90565b60035481565b600081836111449190611c99565b905092915050565b6000600460009054906101000a900473ffffffffffffffffffffffffffffffffffffffff1673ffffffffffffffffffffffffffffffffffffffff1663095ea7b3600560009054906101000a900473ffffffffffffffffffffffffffffffffffffffff16846040518363ffffffff1660e01b81526004016111cd929190611a9b565b602060405180830381600087803b1580156111e757600080fd5b505af11580156111fb573d6000803e3d6000fd5b505050506040513d601f19601f8201168201806040525081019061121f91906117ee565b61125e576040517f08c379a000000000000000000000000000000000000000000000000000000000815260040161125590611c42565b60405180910390fd5b6000600560009054906101000a900473ffffffffffffffffffffffffffffffffffffffff1673ffffffffffffffffffffffffffffffffffffffff1663a0712d68846040518263ffffffff1660e01b81526004016112bb9190611c62565b602060405180830381600087803b1580156112d557600080fd5b505af11580156112e9573d6000803e3d6000fd5b505050506040513d601f19601f8201168201806040525081019061130d9190611817565b905080915050919050565b600460009054906101000a900473ffffffffffffffffffffffffffffffffffffffff1673ffffffffffffffffffffffffffffffffffffffff1663095ea7b3600760009054906101000a900473ffffffffffffffffffffffffffffffffffffffff16836040518363ffffffff1660e01b8152600401611397929190611a9b565b602060405180830381600087803b1580156113b157600080fd5b505af11580156113c5573d6000803e3d6000fd5b505050506040513d601f19601f820116820180604052508101906113e991906117ee565b611428576040517f08c379a000000000000000000000000000000000000000000000000000000000815260040161141f90611c22565b60405180910390fd5b600760009054906101000a900473ffffffffffffffffffffffffffffffffffffffff1673ffffffffffffffffffffffffffffffffffffffff1663e8eda9df600460009054906101000a900473ffffffffffffffffffffffffffffffffffffffff16833060006040518563ffffffff1660e01b81526004016114ac9493929190611afb565b600060405180830381600087803b1580156114c657600080fd5b505af11580156114da573d6000803e3d6000fd5b5050505050565b600080600560009054906101000a900473ffffffffffffffffffffffffffffffffffffffff1673ffffffffffffffffffffffffffffffffffffffff166370a08231306040518263ffffffff1660e01b815260040161153f9190611a49565b60206040518083038186803b15801561155757600080fd5b505afa15801561156b573d6000803e3d6000fd5b505050506040513d601f19601f8201168201806040525081019061158f9190611817565b90506000600560009054906101000a900473ffffffffffffffffffffffffffffffffffffffff1673ffffffffffffffffffffffffffffffffffffffff1663db006a75836040518263ffffffff1660e01b81526004016115ee9190611c62565b602060405180830381600087803b15801561160857600080fd5b505af115801561161c573d6000803e3d6000fd5b505050506040513d601f19601f820116820180604052508101906116409190611817565b9050809250505090565b6000600660009054906101000a900473ffffffffffffffffffffffffffffffffffffffff1673ffffffffffffffffffffffffffffffffffffffff166370a08231306040518263ffffffff1660e01b81526004016116a79190611a49565b60206040518083038186803b1580156116bf57600080fd5b505afa1580156116d3573d6000803e3d6000fd5b505050506040513d601f19601f820116820180604052508101906116f79190611817565b9050600760009054906101000a900473ffffffffffffffffffffffffffffffffffffffff1673ffffffffffffffffffffffffffffffffffffffff166369328dec600460009054906101000a900473ffffffffffffffffffffffffffffffffffffffff1683306040518463ffffffff1660e01b815260040161177a93929190611ac4565b600060405180830381600087803b15801561179457600080fd5b505af11580156117a8573d6000803e3d6000fd5b5050505050565b6000815190506117be81612263565b92915050565b6000813590506117d38161227a565b92915050565b6000815190506117e88161227a565b92915050565b60006020828403121561180057600080fd5b600061180e848285016117af565b91505092915050565b60006020828403121561182957600080fd5b6000611837848285016117d9565b91505092915050565b6000806040838503121561185357600080fd5b6000611861858286016117c4565b9250506020611872858286016117c4565b9150509250929050565b60008060006060848603121561189157600080fd5b600061189f868287016117c4565b93505060206118b0868287016117c4565b92505060406118c1868287016117c4565b9150509250925092565b6118d481611eee565b82525050565b6118e381611f44565b82525050565b60006118f482611c7d565b6118fe8185611c88565b935061190e818560208601611f56565b61191781612019565b840191505092915050565b600061192f602683611c88565b915061193a82612037565b604082019050919050565b6000611952602083611c88565b915061195d82612086565b602082019050919050565b6000611975602183611c88565b9150611980826120af565b604082019050919050565b6000611998602983611c88565b91506119a3826120fe565b604082019050919050565b60006119bb602283611c88565b91506119c68261214d565b604082019050919050565b60006119de602183611c88565b91506119e98261219c565b604082019050919050565b6000611a01602083611c88565b9150611a0c826121eb565b602082019050919050565b6000611a24602483611c88565b9150611a2f82612214565b604082019050919050565b611a4381611f3a565b82525050565b6000602082019050611a5e60008301846118cb565b92915050565b6000606082019050611a7960008301866118cb565b611a8660208301856118cb565b611a936040830184611a3a565b949350505050565b6000604082019050611ab060008301856118cb565b611abd6020830184611a3a565b9392505050565b6000606082019050611ad960008301866118cb565b611ae66020830185611a3a565b611af360408301846118cb565b949350505050565b6000608082019050611b1060008301876118cb565b611b1d6020830186611a3a565b611b2a60408301856118cb565b611b3760608301846118da565b95945050505050565b60006020820190508181036000830152611b5a81846118e9565b905092915050565b60006020820190508181036000830152611b7b81611922565b9050919050565b60006020820190508181036000830152611b9b81611945565b9050919050565b60006020820190508181036000830152611bbb81611968565b9050919050565b60006020820190508181036000830152611bdb8161198b565b9050919050565b60006020820190508181036000830152611bfb816119ae565b9050919050565b60006020820190508181036000830152611c1b816119d1565b9050919050565b60006020820190508181036000830152611c3b816119f4565b9050919050565b60006020820190508181036000830152611c5b81611a17565b9050919050565b6000602082019050611c776000830184611a3a565b92915050565b600081519050919050565b600082825260208201905092915050565b6000611ca482611f3a565b9150611caf83611f3a565b9250827fffffffffffffffffffffffffffffffffffffffffffffffffffffffffffffffff03821115611ce457611ce3611fbb565b5b828201905092915050565b6000808291508390505b6001851115611d3957808604811115611d1557611d14611fbb565b5b6001851615611d245780820291505b8081029050611d328561202a565b9450611cf9565b94509492505050565b6000611d4d82611f3a565b9150611d5883611f3a565b9250611d857fffffffffffffffffffffffffffffffffffffffffffffffffffffffffffffffff8484611d8d565b905092915050565b600082611d9d5760019050611e59565b81611dab5760009050611e59565b8160018114611dc15760028114611dcb57611dfa565b6001915050611e59565b60ff841115611ddd57611ddc611fbb565b5b8360020a915084821115611df457611df3611fbb565b5b50611e59565b5060208310610133831016604e8410600b8410161715611e2f5782820a905083811115611e2a57611e29611fbb565b5b611e59565b611e3c8484846001611cef565b92509050818404811115611e5357611e52611fbb565b5b81810290505b9392505050565b6000611e6b82611f3a565b9150611e7683611f3a565b9250817fffffffffffffffffffffffffffffffffffffffffffffffffffffffffffffffff0483118215151615611eaf57611eae611fbb565b5b828202905092915050565b6000611ec582611f3a565b9150611ed083611f3a565b925082821015611ee357611ee2611fbb565b5b828203905092915050565b6000611ef982611f1a565b9050919050565b60008115159050919050565b600061ffff82169050919050565b600073ffffffffffffffffffffffffffffffffffffffff82169050919050565b6000819050919050565b6000611f4f82611f0c565b9050919050565b60005b83811015611f74578082015181840152602081019050611f59565b83811115611f83576000848401525b50505050565b60006002820490506001821680611fa157607f821691505b60208210811415611fb557611fb4611fea565b5b50919050565b7f4e487b7100000000000000000000000000000000000000000000000000000000600052601160045260246000fd5b7f4e487b7100000000000000000000000000000000000000000000000000000000600052602260045260246000fd5b6000601f19601f8301169050919050565b60008160011c9050919050565b7f4f6e6c7920746865206f776e65722063616e2063616c6c20746869732066756e60008201527f6374696f6e2e0000000000000000000000000000000000000000000000000000602082015250565b7f4661696c656420746f206465706f73697420696e746f20436f6d706f756e642e600082015250565b7f4e6f2066756e647320617661696c61626c6520666f7220726562616c616e636560008201527f2e00000000000000000000000000000000000000000000000000000000000000602082015250565b7f4465706f73697420616d6f756e74206d7573742062652067726561746572207460008201527f68616e207a65726f2e0000000000000000000000000000000000000000000000602082015250565b7f4e6f2066756e647320617661696c61626c6520666f722077697468647261776160008201527f6c2e000000000000000000000000000000000000000000000000000000000000602082015250565b7f4661696c656420746f2077697468647261772066726f6d20436f6d706f756e6460008201527f2e00000000000000000000000000000000000000000000000000000000000000602082015250565b7f4661696c656420746f20617070726f7665205745544820666f7220416176652e600082015250565b7f4661696c656420746f20617070726f7665205745544820666f7220436f6d706f60008201527f756e642e00000000000000000000000000000000000000000000000000000000602082015250565b61226c81611f00565b811461227757600080fd5b50565b61228381611f3a565b811461228e57600080fd5b5056fea264697066735822122097650ffb7e72aeb5b4de7a4432599a9839f3b3f1966ce5b7b68a89d7b3e097a064736f6c63430008040033",
  "linkReferences": {},
  "deployedLinkReferences": {}
}