{
  "_format": "hh-sol-artifact-1",
  "contractName": "Aggregator",
  "sourceName": "contracts/Aggregator.sol",
  "abi": [
    {
      "inputs": [
        {
          "internalType": "address",
          "name": "_owner",
          "type": "address"
        }
      ],
      "stateMutability": "nonpayable",
      "type": "constructor"
    },
    {
      "anonymous": false,
      "inputs": [
        {
          "indexed": false,
          "internalType": "address",
          "name": "owner",
          "type": "address"
        },
        {
          "indexed": false,
          "internalType": "uint256",
          "name": "amount",
          "type": "uint256"
        },
        {
          "indexed": false,
          "internalType": "address",
          "name": "depositTo",
          "type": "address"
        }
      ],
      "name": "Deposit",
      "type": "event"
    },
    {
      "anonymous": false,
      "inputs": [
        {
          "indexed": false,
          "internalType": "address",
          "name": "owner",
          "type": "address"
        },
        {
          "indexed": false,
          "internalType": "uint256",
          "name": "amount",
          "type": "uint256"
        },
        {
          "indexed": false,
          "internalType": "address",
          "name": "depositTo",
          "type": "address"
        }
      ],
      "name": "Rebalance",
      "type": "event"
    },
    {
      "anonymous": false,
      "inputs": [
        {
          "indexed": false,
          "internalType": "address",
          "name": "owner",
          "type": "address"
        },
        {
          "indexed": false,
          "internalType": "uint256",
          "name": "amount",
          "type": "uint256"
        },
        {
          "indexed": false,
          "internalType": "address",
          "name": "withdrawFrom",
          "type": "address"
        }
      ],
      "name": "Withdraw",
      "type": "event"
    },
    {
      "inputs": [],
      "name": "amountDeposited",
      "outputs": [
        {
          "internalType": "uint256",
          "name": "",
          "type": "uint256"
        }
      ],
      "stateMutability": "view",
      "type": "function"
    },
    {
      "inputs": [],
      "name": "balanceOfContract",
      "outputs": [
        {
          "internalType": "uint256",
          "name": "",
          "type": "uint256"
        }
      ],
      "stateMutability": "view",
      "type": "function"
    },
    {
      "inputs": [],
      "name": "balanceWhere",
      "outputs": [
        {
          "internalType": "address",
          "name": "",
          "type": "address"
        }
      ],
      "stateMutability": "view",
      "type": "function"
    },
    {
      "inputs": [
        {
          "internalType": "uint256",
          "name": "_amount",
          "type": "uint256"
        },
        {
          "internalType": "uint256",
          "name": "_compAPY",
          "type": "uint256"
        },
        {
          "internalType": "uint256",
          "name": "_aaveAPY",
          "type": "uint256"
        }
      ],
      "name": "deposit",
      "outputs": [],
      "stateMutability": "nonpayable",
      "type": "function"
    },
    {
      "inputs": [],
      "name": "locationOfFunds",
      "outputs": [
        {
          "internalType": "address",
          "name": "",
          "type": "address"
        }
      ],
      "stateMutability": "view",
      "type": "function"
    },
    {
      "inputs": [],
      "name": "name",
      "outputs": [
        {
          "internalType": "string",
          "name": "",
          "type": "string"
        }
      ],
      "stateMutability": "view",
      "type": "function"
    },
    {
      "inputs": [],
      "name": "owner",
      "outputs": [
        {
          "internalType": "address",
          "name": "",
          "type": "address"
        }
      ],
      "stateMutability": "view",
      "type": "function"
    },
    {
      "inputs": [
        {
          "internalType": "uint256",
          "name": "_compAPY",
          "type": "uint256"
        },
        {
          "internalType": "uint256",
          "name": "_aaveAPY",
          "type": "uint256"
        }
      ],
      "name": "rebalance",
      "outputs": [],
      "stateMutability": "nonpayable",
      "type": "function"
    },
    {
      "inputs": [],
      "name": "withdraw",
      "outputs": [],
      "stateMutability": "nonpayable",
      "type": "function"
    }
  ],
  "bytecode": "0x60806040526040518060400160405280601081526020017f5969656c642041676772656761746f7200000000000000000000000000000000815250600090805190602001906200005192919062000342565b5073c02aaa39b223fe8d0a0e5c4f27ead9083c756cc2600460006101000a81548173ffffffffffffffffffffffffffffffffffffffff021916908373ffffffffffffffffffffffffffffffffffffffff160217905550734ddc2d193948926d02f9b1fe9e1daa0718270ed5600560006101000a81548173ffffffffffffffffffffffffffffffffffffffff021916908373ffffffffffffffffffffffffffffffffffffffff16021790555073030ba81f1c18d280636f32af80b9aad02cf0854e600660006101000a81548173ffffffffffffffffffffffffffffffffffffffff021916908373ffffffffffffffffffffffffffffffffffffffff160217905550737d2768de32b0b80b7a3454c06bdac94a69ddc7a9600760006101000a81548173ffffffffffffffffffffffffffffffffffffffff021916908373ffffffffffffffffffffffffffffffffffffffff160217905550348015620001b357600080fd5b5060405162002b5238038062002b528339818101604052810190620001d9919062000409565b80600160006101000a81548173ffffffffffffffffffffffffffffffffffffffff021916908373ffffffffffffffffffffffffffffffffffffffff1602179055506200026c60405180606001604052806026815260200162002b2c60269139600160009054906101000a900473ffffffffffffffffffffffffffffffffffffffff166200027360201b620011691760201c565b50620005d1565b6200031582826040516024016200028c92919062000487565b6040516020818303038152906040527f319af333000000000000000000000000000000000000000000000000000000007bffffffffffffffffffffffffffffffffffffffffffffffffffffffff19166020820180517bffffffffffffffffffffffffffffffffffffffffffffffffffffffff83818316178352505050506200031960201b60201c565b5050565b60008151905060006a636f6e736f6c652e6c6f679050602083016000808483855afa5050505050565b828054620003509062000541565b90600052602060002090601f016020900481019282620003745760008555620003c0565b82601f106200038f57805160ff1916838001178555620003c0565b82800160010185558215620003c0579182015b82811115620003bf578251825591602001919060010190620003a2565b5b509050620003cf9190620003d3565b5090565b5b80821115620003ee576000816000905550600101620003d4565b5090565b6000815190506200040381620005b7565b92915050565b6000602082840312156200041c57600080fd5b60006200042c84828501620003f2565b91505092915050565b6200044081620004d7565b82525050565b60006200045382620004bb565b6200045f8185620004c6565b9350620004718185602086016200050b565b6200047c81620005a6565b840191505092915050565b60006040820190508181036000830152620004a3818562000446565b9050620004b4602083018462000435565b9392505050565b600081519050919050565b600082825260208201905092915050565b6000620004e482620004eb565b9050919050565b600073ffffffffffffffffffffffffffffffffffffffff82169050919050565b60005b838110156200052b5780820151818401526020810190506200050e565b838111156200053b576000848401525b50505050565b600060028204905060018216806200055a57607f821691505b6020821081141562000571576200057062000577565b5b50919050565b7f4e487b7100000000000000000000000000000000000000000000000000000000600052602260045260246000fd5b6000601f19601f8301169050919050565b620005c281620004d7565b8114620005ce57600080fd5b50565b61254b80620005e16000396000f3fe608060405234801561001057600080fd5b50600436106100925760003560e01c80638f527d7c116100665780638f527d7c146100f9578063b035acb214610117578063df8879b814610135578063e6c7c45614610151578063f86ccd411461016f57610092565b8062aeef8a1461009757806306fdde03146100b35780633ccfd60b146100d15780638da5cb5b146100db575b600080fd5b6100b160048036038101906100ac9190611ccc565b61018d565b005b6100bb6105c6565b6040516100c89190611f4a565b60405180910390f35b6100d9610654565b005b6100e3610a00565b6040516100f09190611e53565b60405180910390f35b610101610a26565b60405161010e9190611e53565b60405180910390f35b61011f610a50565b60405161012c9190611e53565b60405180910390f35b61014f600480360381019061014a9190611c90565b610a76565b005b610159610f86565b6040516101669190612116565b60405180910390f35b610177611163565b6040516101849190612116565b60405180910390f35b600160009054906101000a900473ffffffffffffffffffffffffffffffffffffffff1673ffffffffffffffffffffffffffffffffffffffff163373ffffffffffffffffffffffffffffffffffffffff161461021d576040517f08c379a000000000000000000000000000000000000000000000000000000000815260040161021490612076565b60405180910390fd5b6102416040518060600160405280603b8152602001612499603b9139848484611205565b60008311610284576040517f08c379a000000000000000000000000000000000000000000000000000000000815260040161027b90612056565b60405180910390fd5b600060035411156102d8576102cd6040518060400160405280601d81526020017f526562616c616e63696e67206265666f7265206465706f736974696e670000008152506112a7565b6102d78282610a76565b5b6102fa6040518060600160405280602a815260200161246f602a913933611169565b600460009054906101000a900473ffffffffffffffffffffffffffffffffffffffff1673ffffffffffffffffffffffffffffffffffffffff166323b872dd3330866040518463ffffffff1660e01b815260040161035993929190611e6e565b602060405180830381600087803b15801561037357600080fd5b505af1158015610387573d6000803e3d6000fd5b505050506040513d601f19601f820116820180604052508101906103ab9190611c3e565b50826003546103ba919061214d565b600381905550808211156104b9576104066040518060400160405280601681526020017f4465706f736974696e6720746f20436f6d706f756e64000000000000000000008152506112a7565b600061041184611340565b14610451576040517f08c379a000000000000000000000000000000000000000000000000000000000815260040161044890612096565b60405180910390fd5b600560009054906101000a900473ffffffffffffffffffffffffffffffffffffffff16600260006101000a81548173ffffffffffffffffffffffffffffffffffffffff021916908373ffffffffffffffffffffffffffffffffffffffff160217905550610564565b6104f76040518060400160405280601281526020017f4465706f736974696e6720746f204161766500000000000000000000000000008152506112a7565b61050083611527565b600760009054906101000a900473ffffffffffffffffffffffffffffffffffffffff16600260006101000a81548173ffffffffffffffffffffffffffffffffffffffff021916908373ffffffffffffffffffffffffffffffffffffffff1602179055505b7fe31c7b8d08ee7db0afa68782e1028ef92305caeea8626633ad44d413e30f6b2f3384600260009054906101000a900473ffffffffffffffffffffffffffffffffffffffff166040516105b993929190611ece565b60405180910390a1505050565b600080546105d39061223e565b80601f01602080910402602001604051908101604052809291908181526020018280546105ff9061223e565b801561064c5780601f106106215761010080835404028352916020019161064c565b820191906000526020600020905b81548152906001019060200180831161062f57829003601f168201915b505050505081565b600160009054906101000a900473ffffffffffffffffffffffffffffffffffffffff1673ffffffffffffffffffffffffffffffffffffffff163373ffffffffffffffffffffffffffffffffffffffff16146106e4576040517f08c379a00000000000000000000000000000000000000000000000000000000081526004016106db90612076565b60405180910390fd5b6107226040518060400160405280601a81526020017f456e746572696e672077697468647261772066756e6374696f6e0000000000008152506112a7565b600060035411610767576040517f08c379a000000000000000000000000000000000000000000000000000000000815260040161075e906120d6565b60405180910390fd5b600560009054906101000a900473ffffffffffffffffffffffffffffffffffffffff1673ffffffffffffffffffffffffffffffffffffffff16600260009054906101000a900473ffffffffffffffffffffffffffffffffffffffff1673ffffffffffffffffffffffffffffffffffffffff16141561082e5760006107e961172e565b14610829576040517f08c379a0000000000000000000000000000000000000000000000000000000008152600401610820906120b6565b60405180910390fd5b610837565b6108366118d6565b5b6000600460009054906101000a900473ffffffffffffffffffffffffffffffffffffffff1673ffffffffffffffffffffffffffffffffffffffff166370a08231306040518263ffffffff1660e01b81526004016108949190611e53565b60206040518083038186803b1580156108ac57600080fd5b505afa1580156108c0573d6000803e3d6000fd5b505050506040513d601f19601f820116820180604052508101906108e49190611c67565b9050600460009054906101000a900473ffffffffffffffffffffffffffffffffffffffff1673ffffffffffffffffffffffffffffffffffffffff1663a9059cbb33836040518363ffffffff1660e01b8152600401610943929190611ea5565b602060405180830381600087803b15801561095d57600080fd5b505af1158015610971573d6000803e3d6000fd5b505050506040513d601f19601f820116820180604052508101906109959190611c3e565b507f56c54ba9bd38d8fd62012e42c7ee564519b09763c426d331b3661b537ead19b233600354600260009054906101000a900473ffffffffffffffffffffffffffffffffffffffff166040516109ed93929190611ece565b60405180910390a1600060038190555050565b600160009054906101000a900473ffffffffffffffffffffffffffffffffffffffff1681565b6000600260009054906101000a900473ffffffffffffffffffffffffffffffffffffffff16905090565b600260009054906101000a900473ffffffffffffffffffffffffffffffffffffffff1681565b600160009054906101000a900473ffffffffffffffffffffffffffffffffffffffff1673ffffffffffffffffffffffffffffffffffffffff163373ffffffffffffffffffffffffffffffffffffffff1614610b06576040517f08c379a0000000000000000000000000000000000000000000000000000000008152600401610afd90612076565b60405180910390fd5b610b296040518060800160405280604281526020016124d4604291398383611a9b565b600060035411610b6e576040517f08c379a0000000000000000000000000000000000000000000000000000000008152600401610b65906120f6565b60405180910390fd5b60008183118015610bef5750600560009054906101000a900473ffffffffffffffffffffffffffffffffffffffff1673ffffffffffffffffffffffffffffffffffffffff16600260009054906101000a900473ffffffffffffffffffffffffffffffffffffffff1673ffffffffffffffffffffffffffffffffffffffff1614155b15610d7a57610bfc6118d6565b600460009054906101000a900473ffffffffffffffffffffffffffffffffffffffff1673ffffffffffffffffffffffffffffffffffffffff166370a08231306040518263ffffffff1660e01b8152600401610c579190611e53565b60206040518083038186803b158015610c6f57600080fd5b505afa158015610c83573d6000803e3d6000fd5b505050506040513d601f19601f82011682018060405250810190610ca79190611c67565b9050610cb281611340565b50600560009054906101000a900473ffffffffffffffffffffffffffffffffffffffff16600260006101000a81548173ffffffffffffffffffffffffffffffffffffffff021916908373ffffffffffffffffffffffffffffffffffffffff1602179055507fbe7cdf13e1084b20fe6aadbf0625144b7a36881e5578f3222aab900d72d904c133600354600260009054906101000a900473ffffffffffffffffffffffffffffffffffffffff16604051610d6d93929190611ece565b60405180910390a1610f81565b8282118015610df95750600760009054906101000a900473ffffffffffffffffffffffffffffffffffffffff1673ffffffffffffffffffffffffffffffffffffffff16600260009054906101000a900473ffffffffffffffffffffffffffffffffffffffff1673ffffffffffffffffffffffffffffffffffffffff1614155b15610f8057610e0661172e565b50600460009054906101000a900473ffffffffffffffffffffffffffffffffffffffff1673ffffffffffffffffffffffffffffffffffffffff166370a08231306040518263ffffffff1660e01b8152600401610e629190611e53565b60206040518083038186803b158015610e7a57600080fd5b505afa158015610e8e573d6000803e3d6000fd5b505050506040513d601f19601f82011682018060405250810190610eb29190611c67565b9050610ebd81611527565b600760009054906101000a900473ffffffffffffffffffffffffffffffffffffffff16600260006101000a81548173ffffffffffffffffffffffffffffffffffffffff021916908373ffffffffffffffffffffffffffffffffffffffff1602179055507fbe7cdf13e1084b20fe6aadbf0625144b7a36881e5578f3222aab900d72d904c133600354600260009054906101000a900473ffffffffffffffffffffffffffffffffffffffff16604051610f7793929190611ece565b60405180910390a15b5b505050565b6000600560009054906101000a900473ffffffffffffffffffffffffffffffffffffffff1673ffffffffffffffffffffffffffffffffffffffff16600260009054906101000a900473ffffffffffffffffffffffffffffffffffffffff1673ffffffffffffffffffffffffffffffffffffffff1614156110b257600560009054906101000a900473ffffffffffffffffffffffffffffffffffffffff1673ffffffffffffffffffffffffffffffffffffffff166370a08231306040518263ffffffff1660e01b815260040161105b9190611e53565b60206040518083038186803b15801561107357600080fd5b505afa158015611087573d6000803e3d6000fd5b505050506040513d601f19601f820116820180604052508101906110ab9190611c67565b9050611160565b600660009054906101000a900473ffffffffffffffffffffffffffffffffffffffff1673ffffffffffffffffffffffffffffffffffffffff166370a08231306040518263ffffffff1660e01b815260040161110d9190611e53565b60206040518083038186803b15801561112557600080fd5b505afa158015611139573d6000803e3d6000fd5b505050506040513d601f19601f8201168201806040525081019061115d9190611c67565b90505b90565b60035481565b611201828260405160240161117f929190611f6c565b6040516020818303038152906040527f319af333000000000000000000000000000000000000000000000000000000007bffffffffffffffffffffffffffffffffffffffffffffffffffffffff19166020820180517bffffffffffffffffffffffffffffffffffffffffffffffffffffffff8381831617835250505050611b3a565b5050565b6112a18484848460405160240161121f949392919061200a565b6040516020818303038152906040527fa7a87853000000000000000000000000000000000000000000000000000000007bffffffffffffffffffffffffffffffffffffffffffffffffffffffff19166020820180517bffffffffffffffffffffffffffffffffffffffffffffffffffffffff8381831617835250505050611b3a565b50505050565b61133d816040516024016112bb9190611f4a565b6040516020818303038152906040527f41304fac000000000000000000000000000000000000000000000000000000007bffffffffffffffffffffffffffffffffffffffffffffffffffffffff19166020820180517bffffffffffffffffffffffffffffffffffffffffffffffffffffffff8381831617835250505050611b3a565b50565b600061136360405180606001604052806022815260200161242a602291396112a7565b600460009054906101000a900473ffffffffffffffffffffffffffffffffffffffff1673ffffffffffffffffffffffffffffffffffffffff1663095ea7b3600560009054906101000a900473ffffffffffffffffffffffffffffffffffffffff16846040518363ffffffff1660e01b81526004016113e2929190611ea5565b602060405180830381600087803b1580156113fc57600080fd5b505af1158015611410573d6000803e3d6000fd5b505050506040513d601f19601f820116820180604052508101906114349190611c3e565b506114736040518060400160405280600f81526020017f4d696e74696e672063546f6b656e7300000000000000000000000000000000008152506112a7565b600560009054906101000a900473ffffffffffffffffffffffffffffffffffffffff1673ffffffffffffffffffffffffffffffffffffffff1663a0712d68836040518263ffffffff1660e01b81526004016114ce9190612116565b602060405180830381600087803b1580156114e857600080fd5b505af11580156114fc573d6000803e3d6000fd5b505050506040513d601f19601f820116820180604052508101906115209190611c67565b9050919050565b6115656040518060400160405280601e81526020017f417070726f76696e67204161766520746f207370656e6420746f6b656e7300008152506112a7565b600460009054906101000a900473ffffffffffffffffffffffffffffffffffffffff1673ffffffffffffffffffffffffffffffffffffffff1663095ea7b3600760009054906101000a900473ffffffffffffffffffffffffffffffffffffffff16836040518363ffffffff1660e01b81526004016115e4929190611ea5565b602060405180830381600087803b1580156115fe57600080fd5b505af1158015611612573d6000803e3d6000fd5b505050506040513d601f19601f820116820180604052508101906116369190611c3e565b506116756040518060400160405280601281526020017f4465706f736974696e6720746f204161766500000000000000000000000000008152506112a7565b600760009054906101000a900473ffffffffffffffffffffffffffffffffffffffff1673ffffffffffffffffffffffffffffffffffffffff1663e8eda9df600460009054906101000a900473ffffffffffffffffffffffffffffffffffffffff16833060006040518563ffffffff1660e01b81526004016116f99493929190611f05565b600060405180830381600087803b15801561171357600080fd5b505af1158015611727573d6000803e3d6000fd5b5050505050565b600080600560009054906101000a900473ffffffffffffffffffffffffffffffffffffffff1673ffffffffffffffffffffffffffffffffffffffff166370a08231306040518263ffffffff1660e01b815260040161178c9190611e53565b60206040518083038186803b1580156117a457600080fd5b505afa1580156117b8573d6000803e3d6000fd5b505050506040513d601f19601f820116820180604052508101906117dc9190611c67565b905061181d6040518060400160405280601a81526020017f5769746864726177696e672066726f6d20436f6d706f756e643a00000000000081525082611b63565b6000600560009054906101000a900473ffffffffffffffffffffffffffffffffffffffff1673ffffffffffffffffffffffffffffffffffffffff1663db006a75836040518263ffffffff1660e01b815260040161187a9190612116565b602060405180830381600087803b15801561189457600080fd5b505af11580156118a8573d6000803e3d6000fd5b505050506040513d601f19601f820116820180604052508101906118cc9190611c67565b9050809250505090565b6118f760405180606001604052806023815260200161244c602391396112a7565b6000600660009054906101000a900473ffffffffffffffffffffffffffffffffffffffff1673ffffffffffffffffffffffffffffffffffffffff166370a08231306040518263ffffffff1660e01b81526004016119549190611e53565b60206040518083038186803b15801561196c57600080fd5b505afa158015611980573d6000803e3d6000fd5b505050506040513d601f19601f820116820180604052508101906119a49190611c67565b90506119e56040518060400160405280601681526020017f5769746864726177696e672066726f6d20416176653a0000000000000000000081525082611b63565b600760009054906101000a900473ffffffffffffffffffffffffffffffffffffffff1673ffffffffffffffffffffffffffffffffffffffff166369328dec600460009054906101000a900473ffffffffffffffffffffffffffffffffffffffff1683306040518463ffffffff1660e01b8152600401611a6693929190611ece565b600060405180830381600087803b158015611a8057600080fd5b505af1158015611a94573d6000803e3d6000fd5b5050505050565b611b35838383604051602401611ab393929190611fcc565b6040516020818303038152906040527fca47c4eb000000000000000000000000000000000000000000000000000000007bffffffffffffffffffffffffffffffffffffffffffffffffffffffff19166020820180517bffffffffffffffffffffffffffffffffffffffffffffffffffffffff8381831617835250505050611b3a565b505050565b60008151905060006a636f6e736f6c652e6c6f679050602083016000808483855afa5050505050565b611bfb8282604051602401611b79929190611f9c565b6040516020818303038152906040527fb60e72cc000000000000000000000000000000000000000000000000000000007bffffffffffffffffffffffffffffffffffffffffffffffffffffffff19166020820180517bffffffffffffffffffffffffffffffffffffffffffffffffffffffff8381831617835250505050611b3a565b5050565b600081519050611c0e816123fb565b92915050565b600081359050611c2381612412565b92915050565b600081519050611c3881612412565b92915050565b600060208284031215611c5057600080fd5b6000611c5e84828501611bff565b91505092915050565b600060208284031215611c7957600080fd5b6000611c8784828501611c29565b91505092915050565b60008060408385031215611ca357600080fd5b6000611cb185828601611c14565b9250506020611cc285828601611c14565b9150509250929050565b600080600060608486031215611ce157600080fd5b6000611cef86828701611c14565b9350506020611d0086828701611c14565b9250506040611d1186828701611c14565b9150509250925092565b611d24816121a3565b82525050565b611d33816121f9565b82525050565b6000611d4482612131565b611d4e818561213c565b9350611d5e81856020860161220b565b611d67816122ce565b840191505092915050565b6000611d7f601e8361213c565b9150611d8a826122df565b602082019050919050565b6000611da260268361213c565b9150611dad82612308565b604082019050919050565b6000611dc5601b8361213c565b9150611dd082612357565b602082019050919050565b6000611de8601e8361213c565b9150611df382612380565b602082019050919050565b6000611e0b60158361213c565b9150611e16826123a9565b602082019050919050565b6000611e2e60168361213c565b9150611e39826123d2565b602082019050919050565b611e4d816121ef565b82525050565b6000602082019050611e686000830184611d1b565b92915050565b6000606082019050611e836000830186611d1b565b611e906020830185611d1b565b611e9d6040830184611e44565b949350505050565b6000604082019050611eba6000830185611d1b565b611ec76020830184611e44565b9392505050565b6000606082019050611ee36000830186611d1b565b611ef06020830185611e44565b611efd6040830184611d1b565b949350505050565b6000608082019050611f1a6000830187611d1b565b611f276020830186611e44565b611f346040830185611d1b565b611f416060830184611d2a565b95945050505050565b60006020820190508181036000830152611f648184611d39565b905092915050565b60006040820190508181036000830152611f868185611d39565b9050611f956020830184611d1b565b9392505050565b60006040820190508181036000830152611fb68185611d39565b9050611fc56020830184611e44565b9392505050565b60006060820190508181036000830152611fe68186611d39565b9050611ff56020830185611e44565b6120026040830184611e44565b949350505050565b600060808201905081810360008301526120248187611d39565b90506120336020830186611e44565b6120406040830185611e44565b61204d6060830184611e44565b95945050505050565b6000602082019050818103600083015261206f81611d72565b9050919050565b6000602082019050818103600083015261208f81611d95565b9050919050565b600060208201905081810360008301526120af81611db8565b9050919050565b600060208201905081810360008301526120cf81611ddb565b9050919050565b600060208201905081810360008301526120ef81611dfe565b9050919050565b6000602082019050818103600083015261210f81611e21565b9050919050565b600060208201905061212b6000830184611e44565b92915050565b600081519050919050565b600082825260208201905092915050565b6000612158826121ef565b9150612163836121ef565b9250827fffffffffffffffffffffffffffffffffffffffffffffffffffffffffffffffff0382111561219857612197612270565b5b828201905092915050565b60006121ae826121cf565b9050919050565b60008115159050919050565b600061ffff82169050919050565b600073ffffffffffffffffffffffffffffffffffffffff82169050919050565b6000819050919050565b6000612204826121c1565b9050919050565b60005b8381101561222957808201518184015260208101905061220e565b83811115612238576000848401525b50505050565b6000600282049050600182168061225657607f821691505b6020821081141561226a5761226961229f565b5b50919050565b7f4e487b7100000000000000000000000000000000000000000000000000000000600052601160045260246000fd5b7f4e487b7100000000000000000000000000000000000000000000000000000000600052602260045260246000fd5b6000601f19601f8301169050919050565b7f416d6f756e74206d7573742062652067726561746572207468616e20302e0000600082015250565b7f4f6e6c7920746865206f776e65722063616e2063616c6c20746869732066756e60008201527f6374696f6e2e0000000000000000000000000000000000000000000000000000602082015250565b7f4465706f73697420746f20436f6d706f756e64206661696c65642e0000000000600082015250565b7f57697468647261772066726f6d20436f6d706f756e64206661696c65642e0000600082015250565b7f4e6f2066756e647320746f2077697468647261772e0000000000000000000000600082015250565b7f4e6f2066756e647320746f20726562616c616e63652e00000000000000000000600082015250565b612404816121b5565b811461240f57600080fd5b50565b61241b816121ef565b811461242657600080fd5b5056fe417070726f76696e6720436f6d706f756e6420746f207370656e6420746f6b656e73456e746572696e67205f776974686472617746726f6d416176652066756e6374696f6e5472616e73666572696e6720746f6b656e732066726f6d20257320746f2074686520636f6e74726163744465706f736974696e6720257320746f6b656e73207769746820436f6d706f756e64204150593a20257320616e642041617665204150593a202573456e746572696e6720726562616c616e63652066756e6374696f6e207769746820436f6d706f756e64204150593a20257320616e642041617665204150593a202573a264697066735822122012e4111f8f8887f9e7e6f936daf096c8ba92c69b0300d359a286b6e2c780a8ee64736f6c63430008040033436f6e7374727563746f7220696e697469616c697a65642077697468206f776e65723a202573",
  "linkReferences": {},
  "deployedLinkReferences": {}
}